{
    "contractName": "Random",
    "abi": [
        {
            "inputs": [],
            "stateMutability": "nonpayable",
            "type": "constructor"
        },
        {
            "anonymous": false,
            "inputs": [
                {
                    "indexed": false,
                    "internalType": "uint256",
                    "name": "gameId",
                    "type": "uint256"
                },
                {
                    "indexed": false,
                    "internalType": "address",
                    "name": "winner",
                    "type": "address"
                },
                {
                    "indexed": false,
                    "internalType": "bytes32",
                    "name": "requestId",
                    "type": "bytes32"
                }
            ],
            "name": "GameEnded",
            "type": "event"
        },
        {
            "anonymous": false,
            "inputs": [
                {
                    "indexed": false,
                    "internalType": "uint256",
                    "name": "gameId",
                    "type": "uint256"
                },
                {
                    "indexed": false,
                    "internalType": "uint8",
                    "name": "maxPlayers",
                    "type": "uint8"
                },
                {
                    "indexed": false,
                    "internalType": "uint256",
                    "name": "entryFee",
                    "type": "uint256"
                }
            ],
            "name": "GameStarted",
            "type": "event"
        },
        {
            "anonymous": false,
            "inputs": [
                {
                    "indexed": true,
                    "internalType": "address",
                    "name": "previousOwner",
                    "type": "address"
                },
                {
                    "indexed": true,
                    "internalType": "address",
                    "name": "newOwner",
                    "type": "address"
                }
            ],
            "name": "OwnershipTransferred",
            "type": "event"
        },
        {
            "anonymous": false,
            "inputs": [
                {
                    "indexed": false,
                    "internalType": "uint256",
                    "name": "gameId",
                    "type": "uint256"
                },
                {
                    "indexed": false,
                    "internalType": "address",
                    "name": "player",
                    "type": "address"
                }
            ],
            "name": "PlayerJoined",
            "type": "event"
        },
        {
            "stateMutability": "payable",
            "type": "fallback"
        },
        {
            "inputs": [],
            "name": "endGame",
            "outputs": [],
            "stateMutability": "nonpayable",
            "type": "function"
        },
        {
            "inputs": [],
            "name": "fee",
            "outputs": [
                {
                    "internalType": "uint256",
                    "name": "",
                    "type": "uint256"
                }
            ],
            "stateMutability": "view",
            "type": "function"
        },
        {
            "inputs": [],
            "name": "gameId",
            "outputs": [
                {
                    "internalType": "uint256",
                    "name": "",
                    "type": "uint256"
                }
            ],
            "stateMutability": "view",
            "type": "function"
        },
        {
            "inputs": [],
            "name": "gameStarted",
            "outputs": [
                {
                    "internalType": "bool",
                    "name": "",
                    "type": "bool"
                }
            ],
            "stateMutability": "view",
            "type": "function"
        },
        {
            "inputs": [],
            "name": "joinGame",
            "outputs": [],
            "stateMutability": "payable",
            "type": "function"
        },
        {
            "inputs": [],
            "name": "keyHash",
            "outputs": [
                {
                    "internalType": "bytes32",
                    "name": "",
                    "type": "bytes32"
                }
            ],
            "stateMutability": "view",
            "type": "function"
        },
        {
            "inputs": [],
            "name": "owner",
            "outputs": [
                {
                    "internalType": "address",
                    "name": "",
                    "type": "address"
                }
            ],
            "stateMutability": "view",
            "type": "function"
        },
        {
            "inputs": [
                {
                    "internalType": "uint256",
                    "name": "",
                    "type": "uint256"
                }
            ],
            "name": "players",
            "outputs": [
                {
                    "internalType": "address",
                    "name": "",
                    "type": "address"
                }
            ],
            "stateMutability": "view",
            "type": "function"
        },
        {
            "inputs": [
                {
                    "internalType": "bytes32",
                    "name": "requestId",
                    "type": "bytes32"
                },
                {
                    "internalType": "uint256",
                    "name": "randomness",
                    "type": "uint256"
                }
            ],
            "name": "rawFulfillRandomness",
            "outputs": [],
            "stateMutability": "nonpayable",
            "type": "function"
        },
        {
            "inputs": [],
            "name": "renounceOwnership",
            "outputs": [],
            "stateMutability": "nonpayable",
            "type": "function"
        },
        {
            "inputs": [
                {
                    "internalType": "uint8",
                    "name": "_maxPlayers",
                    "type": "uint8"
                },
                {
                    "internalType": "uint256",
                    "name": "_entryFee",
                    "type": "uint256"
                }
            ],
            "name": "startGame",
            "outputs": [],
            "stateMutability": "nonpayable",
            "type": "function"
        },
        {
            "inputs": [
                {
                    "internalType": "address",
                    "name": "newOwner",
                    "type": "address"
                }
            ],
            "name": "transferOwnership",
            "outputs": [],
            "stateMutability": "nonpayable",
            "type": "function"
        },
        {
            "stateMutability": "payable",
            "type": "receive"
        }
    ],
    "bytecode": "60c060405234801561001057600080fd5b50738c7382f9d8f56b33781fe506e897a4f1e2d1725560a05273326c977e6efc84e512bb9c30f76e30c160ed06fb60805261004a3361007d565b7f6e75b569a01ef56d18cab6a8e71e6600d6ce853834d4a5748b720d06f878b3a4600355655af3107a40006002556100cf565b600180546001600160a01b038381166001600160a01b0319831681179093556040519116919082907f8be0079c531659141344cd1fd0a4f28419497f9722a3daafe3b4186f6b6457e090600090a35050565b60805160a051610c986101026000396000818161023d015261095201526000818161086101526109230152610c986000f3fe6080604052600436106100a55760003560e01c8063d4f77b1c11610061578063d4f77b1c1461018a578063d7c81b5514610192578063ddca3f43146101a8578063e849c38e146101be578063f2fde38b146101de578063f71d96cb146101fe57005b80635e123ce4146100ae57806361728f39146100e25780636cbc2ded14610106578063715018a6146101235780638da5cb5b1461013857806394985ddd1461016a57005b366100ac57005b005b3480156100ba57600080fd5b506005546100cd90610100900460ff1681565b60405190151581526020015b60405180910390f35b3480156100ee57600080fd5b506100f860035481565b6040519081526020016100d9565b34801561011257600080fd5b506100ac6005805461ff0019169055565b34801561012f57600080fd5b506100ac61021e565b34801561014457600080fd5b506001546001600160a01b03165b6040516001600160a01b0390911681526020016100d9565b34801561017657600080fd5b506100ac610185366004610acc565b610232565b6100ac6102bd565b34801561019e57600080fd5b506100f860075481565b3480156101b457600080fd5b506100f860025481565b3480156101ca57600080fd5b506100ac6101d9366004610aee565b610463565b3480156101ea57600080fd5b506100ac6101f9366004610b20565b6105c9565b34801561020a57600080fd5b50610152610219366004610b50565b61063f565b610226610669565b61023060006106c3565b565b336001600160a01b037f000000000000000000000000000000000000000000000000000000000000000016146102af5760405162461bcd60e51b815260206004820152601f60248201527f4f6e6c7920565246436f6f7264696e61746f722063616e2066756c66696c6c0060448201526064015b60405180910390fd5b6102b98282610715565b5050565b600554610100900460ff166103145760405162461bcd60e51b815260206004820152601d60248201527f47616d6520686173206e6f74206265656e20737461727465642079657400000060448201526064016102a6565b60065434146103715760405162461bcd60e51b815260206004820152602360248201527f56616c75652073656e74206973206e6f7420657175616c20746f20656e74727960448201526246656560e81b60648201526084016102a6565b60055460045460ff909116116103b85760405162461bcd60e51b815260206004820152600c60248201526b11d85b59481a5cc8199d5b1b60a21b60448201526064016102a6565b600480546001810182556000919091527f8a35acfbc15ff81a39ae7d344fd709f28e8600b4aa8c65c6b64bfe7fe36bd19b0180546001600160a01b031916339081179091556007546040517f87969bc7faf902221a147b95ceba76e011c5efb0339a0a8ee7a2bb82d9cfbbd69261043f9282526001600160a01b0316602082015260400190565b60405180910390a160055460045460ff90911690036102305761046061083d565b50565b61046b610669565b600554610100900460ff16156104c35760405162461bcd60e51b815260206004820152601960248201527f47616d652069732063757272656e746c792072756e6e696e670000000000000060448201526064016102a6565b60008260ff161161053c5760405162461bcd60e51b815260206004820152603760248201527f596f752063616e6e6f742063726561746520612067616d652077697468206d6160448201527f7820706c6179657273206c696d697420657175616c203000000000000000000060648201526084016102a6565b61054860046000610a9a565b6005805461ffff191660ff84161761010017905560068190556007805460019190600090610577908490610b69565b90915550506007546005546006546040805193845260ff909216602084015282820152517f10a7675bf1b19b67834ca5a59866847fd31c62cdfc8e9466039e6b8e088e15ae9181900360600190a15050565b6105d1610669565b6001600160a01b0381166106365760405162461bcd60e51b815260206004820152602660248201527f4f776e61626c653a206e6577206f776e657220697320746865207a65726f206160448201526564647265737360d01b60648201526084016102a6565b610460816106c3565b6004818154811061064f57600080fd5b6000918252602090912001546001600160a01b0316905081565b6001546001600160a01b031633146102305760405162461bcd60e51b815260206004820181905260248201527f4f776e61626c653a2063616c6c6572206973206e6f7420746865206f776e657260448201526064016102a6565b600180546001600160a01b038381166001600160a01b0319831681179093556040519116919082907f8be0079c531659141344cd1fd0a4f28419497f9722a3daafe3b4186f6b6457e090600090a35050565b6004546000906107259083610b8a565b905060006004828154811061073c5761073c610bac565b60009182526020822001546040516001600160a01b039091169250829047908381818185875af1925050503d8060008114610793576040519150601f19603f3d011682016040523d82523d6000602084013e610798565b606091505b50509050806107e05760405162461bcd60e51b81526020600482015260146024820152732330b4b632b2103a379039b2b7321022ba3432b960611b60448201526064016102a6565b600754604080519182526001600160a01b038416602083015281018690527fd2da138ec4b828f6f1dd931eea0488e41e941f7cda657ad8f524ede8cb2c7ce09060600160405180910390a150506005805461ff0019169055505050565b6002546040516370a0823160e01b8152306004820152600091906001600160a01b037f000000000000000000000000000000000000000000000000000000000000000016906370a0823190602401602060405180830381865afa1580156108a8573d6000803e3d6000fd5b505050506040513d601f19601f820116820180604052508101906108cc9190610bc2565b101561090c5760405162461bcd60e51b815260206004820152600f60248201526e4e6f7420656e6f756768204c494e4b60881b60448201526064016102a6565b61091a60035460025461091f565b905090565b60007f00000000000000000000000000000000000000000000000000000000000000006001600160a01b0316634000aea07f00000000000000000000000000000000000000000000000000000000000000008486600060405160200161098f929190918252602082015260400190565b6040516020818303038152906040526040518463ffffffff1660e01b81526004016109bc93929190610bdb565b6020604051808303816000875af11580156109db573d6000803e3d6000fd5b505050506040513d601f19601f820116820180604052508101906109ff9190610c40565b5060008381526020818152604080832054815180840188905280830185905230606082015260808082018390528351808303909101815260a090910190925281519183019190912086845292909152610a59906001610b69565b600085815260208181526040918290209290925580518083018790528082019390935280518084038201815260609093019052815191012090505b92915050565b508054600082559060005260206000209081019061046091905b80821115610ac85760008155600101610ab4565b5090565b60008060408385031215610adf57600080fd5b50508035926020909101359150565b60008060408385031215610b0157600080fd5b823560ff81168114610b1257600080fd5b946020939093013593505050565b600060208284031215610b3257600080fd5b81356001600160a01b0381168114610b4957600080fd5b9392505050565b600060208284031215610b6257600080fd5b5035919050565b80820180821115610a9457634e487b7160e01b600052601160045260246000fd5b600082610ba757634e487b7160e01b600052601260045260246000fd5b500690565b634e487b7160e01b600052603260045260246000fd5b600060208284031215610bd457600080fd5b5051919050565b60018060a01b038416815260006020848184015260606040840152835180606085015260005b81811015610c1d57858101830151858201608001528201610c01565b506000608082860101526080601f19601f83011685010192505050949350505050565b600060208284031215610c5257600080fd5b81518015158114610b4957600080fdfea2646970667358221220857c2ff72f28eb9b07aa13fdbd09697036851ce868b05d0aef1c953ca4de491964736f6c63430008130033",
    "sourcePath": "d:/grind/random/contracts/Ramdom.sol",
    "compiler": {
        "name": "solc",
        "version": "0.8.19+commit.7dd6d404"
    },
    "functionHashes": {
        "endGame()": "6cbc2ded",
        "fee()": "ddca3f43",
        "gameId()": "d7c81b55",
        "gameStarted()": "5e123ce4",
        "joinGame()": "d4f77b1c",
        "keyHash()": "61728f39",
        "owner()": "8da5cb5b",
        "players(uint256)": "f71d96cb",
        "rawFulfillRandomness(bytes32,uint256)": "94985ddd",
        "renounceOwnership()": "715018a6",
        "startGame(uint8,uint256)": "e849c38e",
        "transferOwnership(address)": "f2fde38b"
    },
    "gasEstimates": {
        "creation": {
            "codeDepositCost": "644800",
            "executionCost": "infinite",
            "totalCost": "infinite"
        },
        "external": {
            "": "206",
            "endGame()": "24395",
            "fee()": "2339",
            "gameId()": "2317",
            "gameStarted()": "2311",
            "joinGame()": "infinite",
            "keyHash()": "2318",
            "owner()": "2409",
            "players(uint256)": "4724",
            "rawFulfillRandomness(bytes32,uint256)": "infinite",
            "renounceOwnership()": "infinite",
            "startGame(uint8,uint256)": "infinite",
            "transferOwnership(address)": "28389"
        },
        "internal": {
            "fulfillRandomness(bytes32,uint256)": "infinite",
            "getRandomWinner()": "infinite"
        }
    }
}